{
  "contractName": "DexiosMarketplace",
  "abi": [
    {
      "inputs": [
        {
          "internalType": "address",
          "name": "_tokenAddress",
          "type": "address"
        },
        {
          "internalType": "address",
          "name": "_nftAddress",
          "type": "address"
        }
      ],
      "stateMutability": "nonpayable",
      "type": "constructor"
    },
    {
      "inputs": [
        {
          "internalType": "address",
          "name": "owner",
          "type": "address"
        }
      ],
      "name": "OwnableInvalidOwner",
      "type": "error"
    },
    {
      "inputs": [
        {
          "internalType": "address",
          "name": "account",
          "type": "address"
        }
      ],
      "name": "OwnableUnauthorizedAccount",
      "type": "error"
    },
    {
      "inputs": [],
      "name": "ReentrancyGuardReentrantCall",
      "type": "error"
    },
    {
      "anonymous": false,
      "inputs": [
        {
          "indexed": true,
          "internalType": "uint256",
          "name": "gigId",
          "type": "uint256"
        },
        {
          "indexed": true,
          "internalType": "address",
          "name": "seller",
          "type": "address"
        },
        {
          "indexed": false,
          "internalType": "string",
          "name": "title",
          "type": "string"
        },
        {
          "indexed": false,
          "internalType": "uint256",
          "name": "price",
          "type": "uint256"
        }
      ],
      "name": "GigCreated",
      "type": "event"
    },
    {
      "anonymous": false,
      "inputs": [
        {
          "indexed": true,
          "internalType": "uint256",
          "name": "gigId",
          "type": "uint256"
        },
        {
          "indexed": false,
          "internalType": "bool",
          "name": "isActive",
          "type": "bool"
        }
      ],
      "name": "GigUpdated",
      "type": "event"
    },
    {
      "anonymous": false,
      "inputs": [
        {
          "indexed": true,
          "internalType": "uint256",
          "name": "orderId",
          "type": "uint256"
        },
        {
          "indexed": false,
          "internalType": "uint256",
          "name": "rating",
          "type": "uint256"
        }
      ],
      "name": "OrderApproved",
      "type": "event"
    },
    {
      "anonymous": false,
      "inputs": [
        {
          "indexed": true,
          "internalType": "uint256",
          "name": "orderId",
          "type": "uint256"
        }
      ],
      "name": "OrderDisputed",
      "type": "event"
    },
    {
      "anonymous": false,
      "inputs": [
        {
          "indexed": true,
          "internalType": "uint256",
          "name": "orderId",
          "type": "uint256"
        },
        {
          "indexed": true,
          "internalType": "uint256",
          "name": "gigId",
          "type": "uint256"
        },
        {
          "indexed": true,
          "internalType": "address",
          "name": "buyer",
          "type": "address"
        },
        {
          "indexed": false,
          "internalType": "uint256",
          "name": "amount",
          "type": "uint256"
        }
      ],
      "name": "OrderPlaced",
      "type": "event"
    },
    {
      "anonymous": false,
      "inputs": [
        {
          "indexed": true,
          "internalType": "uint256",
          "name": "orderId",
          "type": "uint256"
        },
        {
          "indexed": false,
          "internalType": "string",
          "name": "reason",
          "type": "string"
        }
      ],
      "name": "OrderRejected",
      "type": "event"
    },
    {
      "anonymous": false,
      "inputs": [
        {
          "indexed": true,
          "internalType": "address",
          "name": "previousOwner",
          "type": "address"
        },
        {
          "indexed": true,
          "internalType": "address",
          "name": "newOwner",
          "type": "address"
        }
      ],
      "name": "OwnershipTransferred",
      "type": "event"
    },
    {
      "anonymous": false,
      "inputs": [
        {
          "indexed": true,
          "internalType": "uint256",
          "name": "orderId",
          "type": "uint256"
        },
        {
          "indexed": false,
          "internalType": "string",
          "name": "ipfsHash",
          "type": "string"
        }
      ],
      "name": "WorkDelivered",
      "type": "event"
    },
    {
      "inputs": [
        {
          "internalType": "address",
          "name": "",
          "type": "address"
        },
        {
          "internalType": "uint256",
          "name": "",
          "type": "uint256"
        }
      ],
      "name": "buyerOrders",
      "outputs": [
        {
          "internalType": "uint256",
          "name": "",
          "type": "uint256"
        }
      ],
      "stateMutability": "view",
      "type": "function",
      "constant": true
    },
    {
      "inputs": [],
      "name": "dexiosToken",
      "outputs": [
        {
          "internalType": "contract IERC20",
          "name": "",
          "type": "address"
        }
      ],
      "stateMutability": "view",
      "type": "function",
      "constant": true
    },
    {
      "inputs": [
        {
          "internalType": "uint256",
          "name": "",
          "type": "uint256"
        }
      ],
      "name": "gigs",
      "outputs": [
        {
          "internalType": "uint256",
          "name": "id",
          "type": "uint256"
        },
        {
          "internalType": "address",
          "name": "seller",
          "type": "address"
        },
        {
          "internalType": "string",
          "name": "title",
          "type": "string"
        },
        {
          "internalType": "string",
          "name": "description",
          "type": "string"
        },
        {
          "internalType": "string",
          "name": "aiModel",
          "type": "string"
        },
        {
          "internalType": "uint256",
          "name": "priceInTokens",
          "type": "uint256"
        },
        {
          "internalType": "uint256",
          "name": "deliveryTimeHours",
          "type": "uint256"
        },
        {
          "internalType": "bool",
          "name": "isActive",
          "type": "bool"
        },
        {
          "internalType": "uint256",
          "name": "ordersCompleted",
          "type": "uint256"
        },
        {
          "internalType": "uint256",
          "name": "totalRating",
          "type": "uint256"
        },
        {
          "internalType": "uint256",
          "name": "ratingCount",
          "type": "uint256"
        },
        {
          "internalType": "uint256",
          "name": "createdAt",
          "type": "uint256"
        }
      ],
      "stateMutability": "view",
      "type": "function",
      "constant": true
    },
    {
      "inputs": [
        {
          "internalType": "uint256",
          "name": "",
          "type": "uint256"
        }
      ],
      "name": "orders",
      "outputs": [
        {
          "internalType": "uint256",
          "name": "id",
          "type": "uint256"
        },
        {
          "internalType": "uint256",
          "name": "gigId",
          "type": "uint256"
        },
        {
          "internalType": "address",
          "name": "buyer",
          "type": "address"
        },
        {
          "internalType": "address",
          "name": "seller",
          "type": "address"
        },
        {
          "internalType": "string",
          "name": "requirements",
          "type": "string"
        },
        {
          "internalType": "string",
          "name": "ipfsHash",
          "type": "string"
        },
        {
          "internalType": "uint256",
          "name": "paidAmount",
          "type": "uint256"
        },
        {
          "internalType": "enum DexiosMarketplace.OrderStatus",
          "name": "status",
          "type": "uint8"
        },
        {
          "internalType": "uint256",
          "name": "rating",
          "type": "uint256"
        },
        {
          "internalType": "uint256",
          "name": "createdAt",
          "type": "uint256"
        },
        {
          "internalType": "uint256",
          "name": "deliveredAt",
          "type": "uint256"
        }
      ],
      "stateMutability": "view",
      "type": "function",
      "constant": true
    },
    {
      "inputs": [],
      "name": "owner",
      "outputs": [
        {
          "internalType": "address",
          "name": "",
          "type": "address"
        }
      ],
      "stateMutability": "view",
      "type": "function",
      "constant": true
    },
    {
      "inputs": [],
      "name": "platformFeePercent",
      "outputs": [
        {
          "internalType": "uint256",
          "name": "",
          "type": "uint256"
        }
      ],
      "stateMutability": "view",
      "type": "function",
      "constant": true
    },
    {
      "inputs": [],
      "name": "renounceOwnership",
      "outputs": [],
      "stateMutability": "nonpayable",
      "type": "function"
    },
    {
      "inputs": [
        {
          "internalType": "address",
          "name": "",
          "type": "address"
        },
        {
          "internalType": "uint256",
          "name": "",
          "type": "uint256"
        }
      ],
      "name": "sellerGigs",
      "outputs": [
        {
          "internalType": "uint256",
          "name": "",
          "type": "uint256"
        }
      ],
      "stateMutability": "view",
      "type": "function",
      "constant": true
    },
    {
      "inputs": [
        {
          "internalType": "address",
          "name": "",
          "type": "address"
        },
        {
          "internalType": "uint256",
          "name": "",
          "type": "uint256"
        }
      ],
      "name": "sellerOrders",
      "outputs": [
        {
          "internalType": "uint256",
          "name": "",
          "type": "uint256"
        }
      ],
      "stateMutability": "view",
      "type": "function",
      "constant": true
    },
    {
      "inputs": [],
      "name": "sellerProfileNFT",
      "outputs": [
        {
          "internalType": "contract SellerProfileNFT",
          "name": "",
          "type": "address"
        }
      ],
      "stateMutability": "view",
      "type": "function",
      "constant": true
    },
    {
      "inputs": [
        {
          "internalType": "address",
          "name": "newOwner",
          "type": "address"
        }
      ],
      "name": "transferOwnership",
      "outputs": [],
      "stateMutability": "nonpayable",
      "type": "function"
    },
    {
      "inputs": [
        {
          "internalType": "string",
          "name": "title",
          "type": "string"
        },
        {
          "internalType": "string",
          "name": "description",
          "type": "string"
        },
        {
          "internalType": "string",
          "name": "aiModel",
          "type": "string"
        },
        {
          "internalType": "uint256",
          "name": "priceInTokens",
          "type": "uint256"
        },
        {
          "internalType": "uint256",
          "name": "deliveryTimeHours",
          "type": "uint256"
        }
      ],
      "name": "createGig",
      "outputs": [
        {
          "internalType": "uint256",
          "name": "",
          "type": "uint256"
        }
      ],
      "stateMutability": "nonpayable",
      "type": "function"
    },
    {
      "inputs": [
        {
          "internalType": "uint256",
          "name": "gigId",
          "type": "uint256"
        },
        {
          "internalType": "bool",
          "name": "isActive",
          "type": "bool"
        }
      ],
      "name": "updateGigStatus",
      "outputs": [],
      "stateMutability": "nonpayable",
      "type": "function"
    },
    {
      "inputs": [
        {
          "internalType": "uint256",
          "name": "gigId",
          "type": "uint256"
        },
        {
          "internalType": "string",
          "name": "requirements",
          "type": "string"
        }
      ],
      "name": "placeOrder",
      "outputs": [
        {
          "internalType": "uint256",
          "name": "",
          "type": "uint256"
        }
      ],
      "stateMutability": "nonpayable",
      "type": "function"
    },
    {
      "inputs": [
        {
          "internalType": "uint256",
          "name": "orderId",
          "type": "uint256"
        },
        {
          "internalType": "string",
          "name": "ipfsHash",
          "type": "string"
        }
      ],
      "name": "deliverWork",
      "outputs": [],
      "stateMutability": "nonpayable",
      "type": "function"
    },
    {
      "inputs": [
        {
          "internalType": "uint256",
          "name": "orderId",
          "type": "uint256"
        },
        {
          "internalType": "uint256",
          "name": "rating",
          "type": "uint256"
        }
      ],
      "name": "approveOrder",
      "outputs": [],
      "stateMutability": "nonpayable",
      "type": "function"
    },
    {
      "inputs": [
        {
          "internalType": "uint256",
          "name": "orderId",
          "type": "uint256"
        },
        {
          "internalType": "string",
          "name": "reason",
          "type": "string"
        }
      ],
      "name": "rejectOrder",
      "outputs": [],
      "stateMutability": "nonpayable",
      "type": "function"
    },
    {
      "inputs": [
        {
          "internalType": "uint256",
          "name": "orderId",
          "type": "uint256"
        },
        {
          "internalType": "bool",
          "name": "approveOrder",
          "type": "bool"
        }
      ],
      "name": "resolveDispute",
      "outputs": [],
      "stateMutability": "nonpayable",
      "type": "function"
    },
    {
      "inputs": [
        {
          "internalType": "uint256",
          "name": "gigId",
          "type": "uint256"
        }
      ],
      "name": "getGig",
      "outputs": [
        {
          "components": [
            {
              "internalType": "uint256",
              "name": "id",
              "type": "uint256"
            },
            {
              "internalType": "address",
              "name": "seller",
              "type": "address"
            },
            {
              "internalType": "string",
              "name": "title",
              "type": "string"
            },
            {
              "internalType": "string",
              "name": "description",
              "type": "string"
            },
            {
              "internalType": "string",
              "name": "aiModel",
              "type": "string"
            },
            {
              "internalType": "uint256",
              "name": "priceInTokens",
              "type": "uint256"
            },
            {
              "internalType": "uint256",
              "name": "deliveryTimeHours",
              "type": "uint256"
            },
            {
              "internalType": "bool",
              "name": "isActive",
              "type": "bool"
            },
            {
              "internalType": "uint256",
              "name": "ordersCompleted",
              "type": "uint256"
            },
            {
              "internalType": "uint256",
              "name": "totalRating",
              "type": "uint256"
            },
            {
              "internalType": "uint256",
              "name": "ratingCount",
              "type": "uint256"
            },
            {
              "internalType": "uint256",
              "name": "createdAt",
              "type": "uint256"
            }
          ],
          "internalType": "struct DexiosMarketplace.Gig",
          "name": "",
          "type": "tuple"
        }
      ],
      "stateMutability": "view",
      "type": "function",
      "constant": true
    },
    {
      "inputs": [
        {
          "internalType": "uint256",
          "name": "orderId",
          "type": "uint256"
        }
      ],
      "name": "getOrder",
      "outputs": [
        {
          "components": [
            {
              "internalType": "uint256",
              "name": "id",
              "type": "uint256"
            },
            {
              "internalType": "uint256",
              "name": "gigId",
              "type": "uint256"
            },
            {
              "internalType": "address",
              "name": "buyer",
              "type": "address"
            },
            {
              "internalType": "address",
              "name": "seller",
              "type": "address"
            },
            {
              "internalType": "string",
              "name": "requirements",
              "type": "string"
            },
            {
              "internalType": "string",
              "name": "ipfsHash",
              "type": "string"
            },
            {
              "internalType": "uint256",
              "name": "paidAmount",
              "type": "uint256"
            },
            {
              "internalType": "enum DexiosMarketplace.OrderStatus",
              "name": "status",
              "type": "uint8"
            },
            {
              "internalType": "uint256",
              "name": "rating",
              "type": "uint256"
            },
            {
              "internalType": "uint256",
              "name": "createdAt",
              "type": "uint256"
            },
            {
              "internalType": "uint256",
              "name": "deliveredAt",
              "type": "uint256"
            }
          ],
          "internalType": "struct DexiosMarketplace.Order",
          "name": "",
          "type": "tuple"
        }
      ],
      "stateMutability": "view",
      "type": "function",
      "constant": true
    },
    {
      "inputs": [
        {
          "internalType": "address",
          "name": "seller",
          "type": "address"
        }
      ],
      "name": "getSellerGigs",
      "outputs": [
        {
          "internalType": "uint256[]",
          "name": "",
          "type": "uint256[]"
        }
      ],
      "stateMutability": "view",
      "type": "function",
      "constant": true
    },
    {
      "inputs": [
        {
          "internalType": "address",
          "name": "buyer",
          "type": "address"
        }
      ],
      "name": "getBuyerOrders",
      "outputs": [
        {
          "internalType": "uint256[]",
          "name": "",
          "type": "uint256[]"
        }
      ],
      "stateMutability": "view",
      "type": "function",
      "constant": true
    },
    {
      "inputs": [
        {
          "internalType": "address",
          "name": "seller",
          "type": "address"
        }
      ],
      "name": "getSellerOrders",
      "outputs": [
        {
          "internalType": "uint256[]",
          "name": "",
          "type": "uint256[]"
        }
      ],
      "stateMutability": "view",
      "type": "function",
      "constant": true
    },
    {
      "inputs": [
        {
          "internalType": "uint256",
          "name": "gigId",
          "type": "uint256"
        }
      ],
      "name": "getGigAverageRating",
      "outputs": [
        {
          "internalType": "uint256",
          "name": "",
          "type": "uint256"
        }
      ],
      "stateMutability": "view",
      "type": "function",
      "constant": true
    },
    {
      "inputs": [
        {
          "internalType": "uint256",
          "name": "newFeePercent",
          "type": "uint256"
        }
      ],
      "name": "setPlatformFee",
      "outputs": [],
      "stateMutability": "nonpayable",
      "type": "function"
    }
  ],
  "bytecode": "0x608060405260fa600655348015610014575f80fd5b50604051612dd7380380612dd783398101604081905261003391610101565b338061005857604051631e4fbdf760e01b81525f600482015260240160405180910390fd5b61006181610097565b5060018055600280546001600160a01b039384166001600160a01b03199182161790915560038054929093169116179055610132565b5f80546001600160a01b038381166001600160a01b0319831681178455604051919092169283917f8be0079c531659141344cd1fd0a4f28419497f9722a3daafe3b4186f6b6457e09190a35050565b80516001600160a01b03811681146100fc575f80fd5b919050565b5f8060408385031215610112575f80fd5b61011b836100e6565b9150610129602084016100e6565b90509250929050565b612c988061013f5f395ff3fe608060405234801561000f575f80fd5b506004361061016d575f3560e01c80638c639a85116100d9578063b9238f6911610093578063d18e6c031161006e578063d18e6c031461036b578063e4cbac401461037e578063f2fde38b14610391578063fca6195e146103a4575f80fd5b8063b9238f6914610325578063ca42f57814610338578063d09ef2411461034b575f80fd5b80638c639a851461028f5780638da5cb5b14610298578063a45f2ebc146102a8578063a85c38ef146102c8578063b1729507146102f2578063b3479ed414610305575f80fd5b806345cb45051161012a57806345cb4505146101f85780635e3fbdc81461020b5780636dd5e7ff14610236578063715018a61461024957806376619969146102515780637c24de6514610264575f80fd5b806306bb31da1461017157806312e8e2c31461018657806324a375761461019957806334b25ee2146101ac5780634198bb7b146101bf5780634500cb60146101d2575b5f80fd5b61018461017f366004612492565b6103b7565b005b6101846101943660046124c0565b61046d565b6101846101a7366004612574565b6104bb565b6101846101ba366004612492565b61062e565b6101846101cd3660046125b8565b610a7a565b6101e56101e03660046125f3565b610eea565b6040519081526020015b60405180910390f35b6101e56102063660046125f3565b610f15565b61021e6102193660046124c0565b610f2e565b6040516101ef9c9b9a99989796959493929190612649565b6101e56102443660046126da565b611128565b61018461147b565b61018461025f366004612574565b61148e565b600254610277906001600160a01b031681565b6040516001600160a01b0390911681526020016101ef565b6101e560065481565b5f546001600160a01b0316610277565b6102bb6102b636600461276d565b6115f0565b6040516101ef9190612786565b6102db6102d63660046124c0565b611659565b6040516101ef9b9a999897969594939291906127fd565b6101e56103003660046124c0565b6117cb565b6103186103133660046124c0565b611a33565b6040516101ef9190612885565b6101e56103333660046125f3565b611cd5565b6102bb61034636600461276d565b611cee565b61035e6103593660046124c0565b611d55565b6040516101ef9190612967565b600354610277906001600160a01b031681565b6102bb61038c36600461276d565b611f34565b61018461039f36600461276d565b611f9b565b6101e56103b2366004612574565b611fd8565b5f828152600760205260409020600101546001600160a01b031633146104145760405162461bcd60e51b815260206004820152600d60248201526c2737ba1033b4b39037bbb732b960991b60448201526064015b60405180910390fd5b5f82815260076020818152604092839020909101805460ff1916841515908117909155915191825283917f4b648107945b37c3081330c5c21e57bff038b5563cd1f860af37e357d8c0213f910160405180910390a25050565b61047561236c565b6103e88111156104b65760405162461bcd60e51b815260206004820152600c60248201526b08ccaca40e8dede40d0d2ced60a31b604482015260640161040b565b600655565b5f82815260086020526040902060028101546001600160a01b031633146105165760405162461bcd60e51b815260206004820152600f60248201526e2737ba1037b93232b910313abcb2b960891b604482015260640161040b565b6001600782015460ff166004811115610531576105316127c9565b146105745760405162461bcd60e51b815260206004820152601360248201527213dc99195c881b9bdd0819195b1a5d995c9959606a1b604482015260640161040b565b5f8251116105b65760405162461bcd60e51b815260206004820152600f60248201526e1499585cdbdb881c995c5d5a5c9959608a1b604482015260640161040b565b60078101805460ff1916600317905560405183907f0554a92f7eef62df52e62e809c72b1e1f70efa21549df41786857817d1f62b64906105f7908590612a31565b60405180910390a260405183907fcc71d13ec179647ba6991025098e2d3f0dc223962c4052028bfb067e394e22b0905f90a2505050565b61063661236c565b61063e612398565b5f8281526008602052604090206003600782015460ff166004811115610666576106666127c9565b148061068a57506004600782015460ff166004811115610688576106886127c9565b145b6106c55760405162461bcd60e51b815260206004820152600c60248201526b139bdd08191a5cdc1d5d195960a21b604482015260640161040b565b81156109b25760078101805460ff1916600217905560068054908201545f91612710916106f29190612a57565b6106fc9190612a6e565b90505f81836006015461070f9190612a8d565b600254600385015460405163a9059cbb60e01b81526001600160a01b03918216600482015260248101849052929350169063a9059cbb906044016020604051808303815f875af1158015610765573d5f803e3d5ffd5b505050506040513d601f19601f820116820180604052508101906107899190612aa0565b6107cd5760405162461bcd60e51b815260206004820152601560248201527414d95b1b195c881c185e5b595b9d0819985a5b1959605a1b604482015260640161040b565b6002546001600160a01b031663a9059cbb6107ef5f546001600160a01b031690565b6040516001600160e01b031960e084901b1681526001600160a01b039091166004820152602481018590526044016020604051808303815f875af1158015610839573d5f803e3d5ffd5b505050506040513d601f19601f8201168201806040525081019061085d9190612aa0565b61089f5760405162461bcd60e51b8152602060048201526013602482015272119959481d1c985b9cd9995c8819985a5b1959606a1b604482015260640161040b565b60018301545f90815260076020526040812060088101805491926108c283612abb565b90915550506003805490850154604051630e443ed360e01b81526001600160a01b0391821660048201525f929190911690630e443ed390602401602060405180830381865afa158015610917573d5f803e3d5ffd5b505050506040513d601f19601f8201168201806040525081019061093b9190612ad3565b6003546040516323b59a6960e11b8152600481018390525f602482015260016044820152606481018690529192506001600160a01b03169063476b34d2906084015f604051808303815f87803b158015610993575f80fd5b505af11580156109a5573d5f803e3d5ffd5b5050505050505050610a6c565b6002805490820154600683015460405163a9059cbb60e01b81526001600160a01b039283166004820152602481019190915291169063a9059cbb906044016020604051808303815f875af1158015610a0c573d5f803e3d5ffd5b505050506040513d601f19601f82011682018060405250810190610a309190612aa0565b610a6c5760405162461bcd60e51b815260206004820152600d60248201526c1499599d5b990819985a5b1959609a1b604482015260640161040b565b50610a7660018055565b5050565b610a82612398565b5f82815260086020526040902060028101546001600160a01b03163314610add5760405162461bcd60e51b815260206004820152600f60248201526e2737ba1037b93232b910313abcb2b960891b604482015260640161040b565b6001600782015460ff166004811115610af857610af86127c9565b14610b3b5760405162461bcd60e51b815260206004820152601360248201527213dc99195c881b9bdd0819195b1a5d995c9959606a1b604482015260640161040b565b60018210158015610b4d575060058211155b610b8e5760405162461bcd60e51b8152602060048201526012602482015271526174696e67206d75737420626520312d3560701b604482015260640161040b565b60078101805460ff191660021790556008810182905560068054908201545f9161271091610bbc9190612a57565b610bc69190612a6e565b90505f818360060154610bd99190612a8d565b600254600385015460405163a9059cbb60e01b81526001600160a01b03918216600482015260248101849052929350169063a9059cbb906044016020604051808303815f875af1158015610c2f573d5f803e3d5ffd5b505050506040513d601f19601f82011682018060405250810190610c539190612aa0565b610c975760405162461bcd60e51b815260206004820152601560248201527414d95b1b195c881c185e5b595b9d0819985a5b1959605a1b604482015260640161040b565b6002546001600160a01b031663a9059cbb610cb95f546001600160a01b031690565b6040516001600160e01b031960e084901b1681526001600160a01b039091166004820152602481018590526044016020604051808303815f875af1158015610d03573d5f803e3d5ffd5b505050506040513d601f19601f82011682018060405250810190610d279190612aa0565b610d695760405162461bcd60e51b8152602060048201526013602482015272119959481d1c985b9cd9995c8819985a5b1959606a1b604482015260640161040b565b60018301545f9081526007602052604081206008810180549192610d8c83612abb565b919050555084816009015f828254610da49190612aea565b9091555050600a81018054905f610dba83612abb565b90915550506003805490850154604051630e443ed360e01b81526001600160a01b0391821660048201525f929190911690630e443ed390602401602060405180830381865afa158015610e0f573d5f803e3d5ffd5b505050506040513d601f19601f82011682018060405250810190610e339190612ad3565b6003546040516323b59a6960e11b8152600481018390526024810189905260016044820152606481018690529192506001600160a01b03169063476b34d2906084015f604051808303815f87803b158015610e8c575f80fd5b505af1158015610e9e573d5f803e3d5ffd5b50505050867f414adffcfd17b15093661374b5e962991edbe4406f4963033e58a786c1f383ae87604051610ed491815260200190565b60405180910390a25050505050610a7660018055565b600a602052815f5260405f208181548110610f03575f80fd5b905f5260205f20015f91509150505481565b600b602052815f5260405f208181548110610f03575f80fd5b60076020525f908152604090208054600182015460028301805492936001600160a01b0390921692610f5f90612afd565b80601f0160208091040260200160405190810160405280929190818152602001828054610f8b90612afd565b8015610fd65780601f10610fad57610100808354040283529160200191610fd6565b820191905f5260205f20905b815481529060010190602001808311610fb957829003601f168201915b505050505090806003018054610feb90612afd565b80601f016020809104026020016040519081016040528092919081815260200182805461101790612afd565b80156110625780601f1061103957610100808354040283529160200191611062565b820191905f5260205f20905b81548152906001019060200180831161104557829003601f168201915b50505050509080600401805461107790612afd565b80601f01602080910402602001604051908101604052809291908181526020018280546110a390612afd565b80156110ee5780601f106110c5576101008083540402835291602001916110ee565b820191905f5260205f20905b8154815290600101906020018083116110d157829003601f168201915b5050505060058301546006840154600785015460088601546009870154600a880154600b909801549697949693955060ff9092169390928c565b60035460405163a787c80b60e01b81523360048201525f916001600160a01b03169063a787c80b90602401602060405180830381865afa15801561116e573d5f803e3d5ffd5b505050506040513d601f19601f820116820180604052508101906111929190612aa0565b6111de5760405162461bcd60e51b815260206004820152601860248201527f4d75737420686176652073656c6c65722070726f66696c650000000000000000604482015260640161040b565b5f86511161121f5760405162461bcd60e51b815260206004820152600e60248201526d151a5d1b19481c995c5d5a5c995960921b604482015260640161040b565b5f831161126e5760405162461bcd60e51b815260206004820152601c60248201527f5072696365206d7573742062652067726561746572207468616e203000000000604482015260640161040b565b5f82116112c95760405162461bcd60e51b8152602060048201526024808201527f44656c69766572792074696d65206d75737420626520677265617465722074686044820152630616e20360e41b606482015260840161040b565b60048054905f6112d883612abb565b909155505060045460408051610180810182528281523360208083019182528284018b8152606084018b9052608084018a905260a0840189905260c08401889052600160e085018190525f6101008601819052610120860181905261014086018190524261016087015287815260079093529490912083518155915193820180546001600160a01b0319166001600160a01b0390951694909417909355915190919060028201906113899082612b81565b506060820151600382019061139e9082612b81565b50608082015160048201906113b39082612b81565b5060a0820151600582015560c0820151600682015560e082015160078201805460ff19169115159190911790556101008201516008820155610120820151600980830191909155610140830151600a83015561016090920151600b90910155335f81815260209283526040808220805460018101825590835293909120909201839055905182907f930c184011fd2ef0f77fb6fdbb4dcdb36594cb2618053e0009fe4b700b43af0990611469908b908990612c41565b60405180910390a39695505050505050565b61148361236c565b61148c5f6123c2565b565b5f82815260086020526040902060038101546001600160a01b031633146114ea5760405162461bcd60e51b815260206004820152601060248201526f2737ba1037b93232b91039b2b63632b960811b604482015260640161040b565b5f600782015460ff166004811115611504576115046127c9565b146115485760405162461bcd60e51b8152602060048201526014602482015273496e76616c6964206f726465722073746174757360601b604482015260640161040b565b5f82511161158d5760405162461bcd60e51b815260206004820152601260248201527112541194c81a185cda081c995c5d5a5c995960721b604482015260640161040b565b6005810161159b8382612b81565b5060078101805460ff1916600117905542600a82015560405183907fca97373e703f9868a49a9106c6ad1793eba600edd7b593cc152ccd2f7e385baa906115e3908590612a31565b60405180910390a2505050565b6001600160a01b0381165f908152600a602090815260409182902080548351818402810184019094528084526060939283018282801561164d57602002820191905f5260205f20905b815481526020019060010190808311611639575b50505050509050919050565b60086020525f908152604090208054600182015460028301546003840154600485018054949593946001600160a01b0393841694929093169261169b90612afd565b80601f01602080910402602001604051908101604052809291908181526020018280546116c790612afd565b80156117125780601f106116e957610100808354040283529160200191611712565b820191905f5260205f20905b8154815290600101906020018083116116f557829003601f168201915b50505050509080600501805461172790612afd565b80601f016020809104026020016040519081016040528092919081815260200182805461175390612afd565b801561179e5780601f106117755761010080835404028352916020019161179e565b820191905f5260205f20905b81548152906001019060200180831161178157829003601f168201915b5050506006840154600785015460088601546009870154600a909701549596929560ff909216945092508b565b5f8181526007602090815260408083208151610180810183528154815260018201546001600160a01b0316938101939093526002810180548594938401919061181390612afd565b80601f016020809104026020016040519081016040528092919081815260200182805461183f90612afd565b801561188a5780601f106118615761010080835404028352916020019161188a565b820191905f5260205f20905b81548152906001019060200180831161186d57829003601f168201915b505050505081526020016003820180546118a390612afd565b80601f01602080910402602001604051908101604052809291908181526020018280546118cf90612afd565b801561191a5780601f106118f15761010080835404028352916020019161191a565b820191905f5260205f20905b8154815290600101906020018083116118fd57829003601f168201915b5050505050815260200160048201805461193390612afd565b80601f016020809104026020016040519081016040528092919081815260200182805461195f90612afd565b80156119aa5780601f10611981576101008083540402835291602001916119aa565b820191905f5260205f20905b81548152906001019060200180831161198d57829003601f168201915b50505091835250506005820154602082015260068201546040820152600782015460ff161515606082015260088201546080820152600982015460a0820152600a82015460c0820152600b9091015460e0909101526101408101519091505f03611a1657505f92915050565b806101400151816101200151611a2c9190612a6e565b9392505050565b611a996040518061018001604052805f81526020015f6001600160a01b031681526020016060815260200160608152602001606081526020015f81526020015f81526020015f151581526020015f81526020015f81526020015f81526020015f81525090565b5f828152600760209081526040918290208251610180810184528154815260018201546001600160a01b0316928101929092526002810180549293919291840191611ae390612afd565b80601f0160208091040260200160405190810160405280929190818152602001828054611b0f90612afd565b8015611b5a5780601f10611b3157610100808354040283529160200191611b5a565b820191905f5260205f20905b815481529060010190602001808311611b3d57829003601f168201915b50505050508152602001600382018054611b7390612afd565b80601f0160208091040260200160405190810160405280929190818152602001828054611b9f90612afd565b8015611bea5780601f10611bc157610100808354040283529160200191611bea565b820191905f5260205f20905b815481529060010190602001808311611bcd57829003601f168201915b50505050508152602001600482018054611c0390612afd565b80601f0160208091040260200160405190810160405280929190818152602001828054611c2f90612afd565b8015611c7a5780601f10611c5157610100808354040283529160200191611c7a565b820191905f5260205f20905b815481529060010190602001808311611c5d57829003601f168201915b50505091835250506005820154602082015260068201546040820152600782015460ff161515606082015260088201546080820152600982015460a0820152600a82015460c0820152600b9091015460e09091015292915050565b6009602052815f5260405f208181548110610f03575f80fd5b6001600160a01b0381165f9081526009602090815260409182902080548351818402810184019094528084526060939283018282801561164d57602002820191905f5260205f20908154815260200190600101908083116116395750505050509050919050565b611d5d612411565b5f828152600860209081526040918290208251610160810184528154815260018201549281019290925260028101546001600160a01b039081169383019390935260038101549092166060820152600482018054919291608084019190611dc390612afd565b80601f0160208091040260200160405190810160405280929190818152602001828054611def90612afd565b8015611e3a5780601f10611e1157610100808354040283529160200191611e3a565b820191905f5260205f20905b815481529060010190602001808311611e1d57829003601f168201915b50505050508152602001600582018054611e5390612afd565b80601f0160208091040260200160405190810160405280929190818152602001828054611e7f90612afd565b8015611eca5780601f10611ea157610100808354040283529160200191611eca565b820191905f5260205f20905b815481529060010190602001808311611ead57829003601f168201915b505050918352505060068201546020820152600782015460409091019060ff166004811115611efb57611efb6127c9565b6004811115611f0c57611f0c6127c9565b81526008820154602082015260098201546040820152600a9091015460609091015292915050565b6001600160a01b0381165f908152600b602090815260409182902080548351818402810184019094528084526060939283018282801561164d57602002820191905f5260205f20908154815260200190600101908083116116395750505050509050919050565b611fa361236c565b6001600160a01b038116611fcc57604051631e4fbdf760e01b81525f600482015260240161040b565b611fd5816123c2565b50565b5f611fe1612398565b5f8381526007602081905260409091209081015460ff166120355760405162461bcd60e51b815260206004820152600e60248201526d476967206e6f742061637469766560901b604482015260640161040b565b60018101546001600160a01b031633036120885760405162461bcd60e51b815260206004820152601460248201527343616e6e6f74206f72646572206f776e2067696760601b604482015260640161040b565b5f8351116120ce5760405162461bcd60e51b815260206004820152601360248201527214995c5d5a5c995b595b9d1cc81b9959591959606a1b604482015260640161040b565b60058101546002546040516323b872dd60e01b8152336004820152306024820152604481018390526001600160a01b03909116906323b872dd906064016020604051808303815f875af1158015612127573d5f803e3d5ffd5b505050506040513d601f19601f8201168201806040525081019061214b9190612aa0565b6121885760405162461bcd60e51b815260206004820152600e60248201526d14185e5b595b9d0819985a5b195960921b604482015260640161040b565b60058054905f61219783612abb565b909155505060055460408051610160810182528281526020808201898152338385019081526001888101546001600160a01b0390811660608701908152608087018d815288518088018a525f80825260a08a019190915260c089018c905260e089018190526101008901819052426101208a015261014089018190528a81526008909752979095208651815593519184019190915590516002830180546001600160a01b031990811692841692909217905592516003830180549094169116179091559151909190600482019061226e9082612b81565b5060a082015160058201906122839082612b81565b5060c0820151600682015560e082015160078201805460ff191660018360048111156122b1576122b16127c9565b02179055506101008201516008820155610120820151600982015561014090910151600a91820155335f8181526020928352604080822080546001808201835591845285842001869055878101546001600160a01b03168352600b855281832080549182018155835291849020909101849055518481529091889184917ff272b72b23241ac4dea5dac19b1157309d925f5daa5577f2795bdaaf2af7d0c5910160405180910390a49250505061236660018055565b92915050565b5f546001600160a01b0316331461148c5760405163118cdaa760e01b815233600482015260240161040b565b6002600154036123bb57604051633ee5aeb560e01b815260040160405180910390fd5b6002600155565b5f80546001600160a01b038381166001600160a01b0319831681178455604051919092169283917f8be0079c531659141344cd1fd0a4f28419497f9722a3daafe3b4186f6b6457e09190a35050565b6040518061016001604052805f81526020015f81526020015f6001600160a01b031681526020015f6001600160a01b0316815260200160608152602001606081526020015f81526020015f600481111561246d5761246d6127c9565b81526020015f81526020015f81526020015f81525090565b8015158114611fd5575f80fd5b5f80604083850312156124a3575f80fd5b8235915060208301356124b581612485565b809150509250929050565b5f602082840312156124d0575f80fd5b5035919050565b634e487b7160e01b5f52604160045260245ffd5b5f82601f8301126124fa575f80fd5b813567ffffffffffffffff80821115612515576125156124d7565b604051601f8301601f19908116603f0116810190828211818310171561253d5761253d6124d7565b81604052838152866020858801011115612555575f80fd5b836020870160208301375f602085830101528094505050505092915050565b5f8060408385031215612585575f80fd5b82359150602083013567ffffffffffffffff8111156125a2575f80fd5b6125ae858286016124eb565b9150509250929050565b5f80604083850312156125c9575f80fd5b50508035926020909101359150565b80356001600160a01b03811681146125ee575f80fd5b919050565b5f8060408385031215612604575f80fd5b61260d836125d8565b946020939093013593505050565b5f81518084528060208401602086015e5f602082860101526020601f19601f83011685010191505092915050565b8c81526001600160a01b038c166020820152610180604082018190525f906126738382018e61261b565b90508281036060840152612687818d61261b565b9050828103608084015261269b818c61261b565b60a084019a909a52505060c081019690965293151560e08601526101008501929092526101208401526101408301526101609091015295945050505050565b5f805f805f60a086880312156126ee575f80fd5b853567ffffffffffffffff80821115612705575f80fd5b61271189838a016124eb565b96506020880135915080821115612726575f80fd5b61273289838a016124eb565b95506040880135915080821115612747575f80fd5b50612754888289016124eb565b9598949750949560608101359550608001359392505050565b5f6020828403121561277d575f80fd5b611a2c826125d8565b602080825282518282018190525f9190848201906040850190845b818110156127bd578351835292840192918401916001016127a1565b50909695505050505050565b634e487b7160e01b5f52602160045260245ffd5b600581106127f957634e487b7160e01b5f52602160045260245ffd5b9052565b8b8152602081018b90526001600160a01b038a8116604083015289166060820152610160608082018190525f906128368382018b61261b565b905082810360a084015261284a818a61261b565b9150508660c083015261286060e08301876127dd565b8461010083015283610120830152826101408301529c9b505050505050505050505050565b60208152815160208201525f60208301516128ab60408401826001600160a01b03169052565b5060408301516101808060608501526128c86101a085018361261b565b91506060850151601f19808685030160808701526128e6848361261b565b935060808701519150808685030160a087015250612904838261261b565b92505060a085015160c085015260c085015160e085015260e08501516101006129308187018315159052565b8601516101208681019190915286015161014080870191909152860151610160808701919091529095015193019290925250919050565b6020815281516020820152602082015160408201525f604083015161299760608401826001600160a01b03169052565b5060608301516001600160a01b03811660808401525060808301516101608060a08501526129c961018085018361261b565b915060a0850151601f198584030160c08601526129e6838261261b565b92505060c085015160e085015260e0850151610100612a07818701836127dd565b86015161012086810191909152860151610140808701919091529095015193019290925250919050565b602081525f611a2c602083018461261b565b634e487b7160e01b5f52601160045260245ffd5b808202811582820484141761236657612366612a43565b5f82612a8857634e487b7160e01b5f52601260045260245ffd5b500490565b8181038181111561236657612366612a43565b5f60208284031215612ab0575f80fd5b8151611a2c81612485565b5f60018201612acc57612acc612a43565b5060010190565b5f60208284031215612ae3575f80fd5b5051919050565b8082018082111561236657612366612a43565b600181811c90821680612b1157607f821691505b602082108103612b2f57634e487b7160e01b5f52602260045260245ffd5b50919050565b601f821115612b7c57805f5260205f20601f840160051c81016020851015612b5a5750805b601f840160051c820191505b81811015612b79575f8155600101612b66565b50505b505050565b815167ffffffffffffffff811115612b9b57612b9b6124d7565b612baf81612ba98454612afd565b84612b35565b602080601f831160018114612be2575f8415612bcb5750858301515b5f19600386901b1c1916600185901b178555612c39565b5f85815260208120601f198616915b82811015612c1057888601518255948401946001909101908401612bf1565b5085821015612c2d57878501515f19600388901b60f8161c191681555b505060018460011b0185555b505050505050565b604081525f612c53604083018561261b565b9050826020830152939250505056fea26469706673582212201e695e6cfb1834c9ad713dcd2c85fdeb513ef3dd8f3cc36e29d8f518b173455364736f6c63430008190033",
  "immutableReferences": {},
  "source": "// SPDX-License-Identifier: MIT\npragma solidity ^0.8.25;\n\nimport \"@openzeppelin/contracts/token/ERC20/IERC20.sol\";\nimport \"@openzeppelin/contracts/access/Ownable.sol\";\nimport \"@openzeppelin/contracts/utils/ReentrancyGuard.sol\";\nimport \"./SellerProfileNFT.sol\";\n\ncontract DexiosMarketplace is Ownable, ReentrancyGuard {\n    IERC20 public dexiosToken;\n    SellerProfileNFT public sellerProfileNFT;\n\n    uint256 private _gigIdCounter;\n    uint256 private _orderIdCounter;\n    uint256 public platformFeePercent = 250;\n\n    enum OrderStatus {\n        Pending,\n        Delivered,\n        Approved,\n        Rejected,\n        Disputed\n    }\n\n    struct Gig {\n        uint256 id;\n        address seller;\n        string title;\n        string description;\n        string aiModel;\n        uint256 priceInTokens;\n        uint256 deliveryTimeHours;\n        bool isActive;\n        uint256 ordersCompleted;\n        uint256 totalRating;\n        uint256 ratingCount;\n        uint256 createdAt;\n    }\n\n    struct Order {\n        uint256 id;\n        uint256 gigId;\n        address buyer;\n        address seller;\n        string requirements;\n        string ipfsHash;\n        uint256 paidAmount;\n        OrderStatus status;\n        uint256 rating;\n        uint256 createdAt;\n        uint256 deliveredAt;\n    }\n\n    mapping(uint256 => Gig) public gigs;\n    mapping(uint256 => Order) public orders;\n    mapping(address => uint256[]) public sellerGigs;\n    mapping(address => uint256[]) public buyerOrders;\n    mapping(address => uint256[]) public sellerOrders;\n\n    event GigCreated(uint256 indexed gigId, address indexed seller, string title, uint256 price);\n    event GigUpdated(uint256 indexed gigId, bool isActive);\n    event OrderPlaced(uint256 indexed orderId, uint256 indexed gigId, address indexed buyer, uint256 amount);\n    event WorkDelivered(uint256 indexed orderId, string ipfsHash);\n    event OrderApproved(uint256 indexed orderId, uint256 rating);\n    event OrderRejected(uint256 indexed orderId, string reason);\n    event OrderDisputed(uint256 indexed orderId);\n\n    constructor(address _tokenAddress, address _nftAddress) Ownable(msg.sender) {\n        dexiosToken = IERC20(_tokenAddress);\n        sellerProfileNFT = SellerProfileNFT(_nftAddress);\n    }\n\n    function createGig(\n        string memory title,\n        string memory description,\n        string memory aiModel,\n        uint256 priceInTokens,\n        uint256 deliveryTimeHours\n    ) external returns (uint256) {\n        require(sellerProfileNFT.hasProfile(msg.sender), \"Must have seller profile\");\n        require(bytes(title).length > 0, \"Title required\");\n        require(priceInTokens > 0, \"Price must be greater than 0\");\n        require(deliveryTimeHours > 0, \"Delivery time must be greater than 0\");\n\n        _gigIdCounter++;\n        uint256 newGigId = _gigIdCounter;\n\n        gigs[newGigId] = Gig({\n            id: newGigId,\n            seller: msg.sender,\n            title: title,\n            description: description,\n            aiModel: aiModel,\n            priceInTokens: priceInTokens,\n            deliveryTimeHours: deliveryTimeHours,\n            isActive: true,\n            ordersCompleted: 0,\n            totalRating: 0,\n            ratingCount: 0,\n            createdAt: block.timestamp\n        });\n\n        sellerGigs[msg.sender].push(newGigId);\n\n        emit GigCreated(newGigId, msg.sender, title, priceInTokens);\n        return newGigId;\n    }\n\n    function updateGigStatus(uint256 gigId, bool isActive) external {\n        require(gigs[gigId].seller == msg.sender, \"Not gig owner\");\n        gigs[gigId].isActive = isActive;\n        emit GigUpdated(gigId, isActive);\n    }\n\n    function placeOrder(uint256 gigId, string memory requirements) external nonReentrant returns (uint256) {\n        Gig storage gig = gigs[gigId];\n        require(gig.isActive, \"Gig not active\");\n        require(msg.sender != gig.seller, \"Cannot order own gig\");\n        require(bytes(requirements).length > 0, \"Requirements needed\");\n\n        uint256 totalAmount = gig.priceInTokens;\n        require(dexiosToken.transferFrom(msg.sender, address(this), totalAmount), \"Payment failed\");\n\n        _orderIdCounter++;\n        uint256 newOrderId = _orderIdCounter;\n\n        orders[newOrderId] = Order({\n            id: newOrderId,\n            gigId: gigId,\n            buyer: msg.sender,\n            seller: gig.seller,\n            requirements: requirements,\n            ipfsHash: \"\",\n            paidAmount: totalAmount,\n            status: OrderStatus.Pending,\n            rating: 0,\n            createdAt: block.timestamp,\n            deliveredAt: 0\n        });\n\n        buyerOrders[msg.sender].push(newOrderId);\n        sellerOrders[gig.seller].push(newOrderId);\n\n        emit OrderPlaced(newOrderId, gigId, msg.sender, totalAmount);\n        return newOrderId;\n    }\n\n    function deliverWork(uint256 orderId, string memory ipfsHash) external {\n        Order storage order = orders[orderId];\n        require(order.seller == msg.sender, \"Not order seller\");\n        require(order.status == OrderStatus.Pending, \"Invalid order status\");\n        require(bytes(ipfsHash).length > 0, \"IPFS hash required\");\n\n        order.ipfsHash = ipfsHash;\n        order.status = OrderStatus.Delivered;\n        order.deliveredAt = block.timestamp;\n\n        emit WorkDelivered(orderId, ipfsHash);\n    }\n\n    function approveOrder(uint256 orderId, uint256 rating) external nonReentrant {\n        Order storage order = orders[orderId];\n        require(order.buyer == msg.sender, \"Not order buyer\");\n        require(order.status == OrderStatus.Delivered, \"Order not delivered\");\n        require(rating >= 1 && rating <= 5, \"Rating must be 1-5\");\n\n        order.status = OrderStatus.Approved;\n        order.rating = rating;\n\n        uint256 platformFee = (order.paidAmount * platformFeePercent) / 10000;\n        uint256 sellerAmount = order.paidAmount - platformFee;\n\n        require(dexiosToken.transfer(order.seller, sellerAmount), \"Seller payment failed\");\n        require(dexiosToken.transfer(owner(), platformFee), \"Fee transfer failed\");\n\n        Gig storage gig = gigs[order.gigId];\n        gig.ordersCompleted++;\n        gig.totalRating += rating;\n        gig.ratingCount++;\n\n        uint256 sellerTokenId = sellerProfileNFT.sellerToTokenId(order.seller);\n        sellerProfileNFT.updateReputation(sellerTokenId, rating, true, sellerAmount);\n\n        emit OrderApproved(orderId, rating);\n    }\n\n    function rejectOrder(uint256 orderId, string memory reason) external {\n        Order storage order = orders[orderId];\n        require(order.buyer == msg.sender, \"Not order buyer\");\n        require(order.status == OrderStatus.Delivered, \"Order not delivered\");\n        require(bytes(reason).length > 0, \"Reason required\");\n\n        order.status = OrderStatus.Rejected;\n\n        emit OrderRejected(orderId, reason);\n        emit OrderDisputed(orderId);\n    }\n\n    function resolveDispute(uint256 orderId, bool approveOrder) external onlyOwner nonReentrant {\n        Order storage order = orders[orderId];\n        require(order.status == OrderStatus.Rejected || order.status == OrderStatus.Disputed, \"Not disputed\");\n\n        if (approveOrder) {\n            order.status = OrderStatus.Approved;\n\n            uint256 platformFee = (order.paidAmount * platformFeePercent) / 10000;\n            uint256 sellerAmount = order.paidAmount - platformFee;\n\n            require(dexiosToken.transfer(order.seller, sellerAmount), \"Seller payment failed\");\n            require(dexiosToken.transfer(owner(), platformFee), \"Fee transfer failed\");\n\n            Gig storage gig = gigs[order.gigId];\n            gig.ordersCompleted++;\n\n            uint256 sellerTokenId = sellerProfileNFT.sellerToTokenId(order.seller);\n            sellerProfileNFT.updateReputation(sellerTokenId, 0, true, sellerAmount);\n        } else {\n            require(dexiosToken.transfer(order.buyer, order.paidAmount), \"Refund failed\");\n        }\n    }\n\n    function getGig(uint256 gigId) external view returns (Gig memory) {\n        return gigs[gigId];\n    }\n\n    function getOrder(uint256 orderId) external view returns (Order memory) {\n        return orders[orderId];\n    }\n\n    function getSellerGigs(address seller) external view returns (uint256[] memory) {\n        return sellerGigs[seller];\n    }\n\n    function getBuyerOrders(address buyer) external view returns (uint256[] memory) {\n        return buyerOrders[buyer];\n    }\n\n    function getSellerOrders(address seller) external view returns (uint256[] memory) {\n        return sellerOrders[seller];\n    }\n\n    function getGigAverageRating(uint256 gigId) external view returns (uint256) {\n        Gig memory gig = gigs[gigId];\n        if (gig.ratingCount == 0) return 0;\n        return gig.totalRating / gig.ratingCount;\n    }\n\n    function setPlatformFee(uint256 newFeePercent) external onlyOwner {\n        require(newFeePercent <= 1000, \"Fee too high\");\n        platformFeePercent = newFeePercent;\n    }\n}",
  "sourcePath": "/home/oronavisrur/DEXIOS/contracts/DexiosMarketplace.sol",
  "compiler": {
    "name": "solc",
    "version": "0.8.25+commit.b61c2a91.Emscripten.clang"
  },
  "schemaVersion": "3.4.16",
  "updatedAt": "2026-01-30T15:52:29.455Z",
  "networkType": "ethereum",
  "devdoc": {
    "errors": {
      "OwnableInvalidOwner(address)": [
        {
          "details": "The owner is not a valid owner account. (eg. `address(0)`)"
        }
      ],
      "OwnableUnauthorizedAccount(address)": [
        {
          "details": "The caller account is not authorized to perform an operation."
        }
      ],
      "ReentrancyGuardReentrantCall()": [
        {
          "details": "Unauthorized reentrant call."
        }
      ]
    },
    "kind": "dev",
    "methods": {
      "owner()": {
        "details": "Returns the address of the current owner."
      },
      "renounceOwnership()": {
        "details": "Leaves the contract without owner. It will not be possible to call `onlyOwner` functions. Can only be called by the current owner. NOTE: Renouncing ownership will leave the contract without an owner, thereby disabling any functionality that is only available to the owner."
      },
      "transferOwnership(address)": {
        "details": "Transfers ownership of the contract to a new account (`newOwner`). Can only be called by the current owner."
      }
    },
    "version": 1
  },
  "userdoc": {
    "kind": "user",
    "methods": {},
    "version": 1
  }
}