{
  "contractName": "Migrations",
  "abi": [
    {
      "inputs": [],
      "name": "last_completed_migration",
      "outputs": [
        {
          "internalType": "uint256",
          "name": "",
          "type": "uint256"
        }
      ],
      "stateMutability": "view",
      "type": "function",
      "constant": true
    },
    {
      "inputs": [],
      "name": "owner",
      "outputs": [
        {
          "internalType": "address",
          "name": "",
          "type": "address"
        }
      ],
      "stateMutability": "view",
      "type": "function",
      "constant": true
    },
    {
      "inputs": [
        {
          "internalType": "uint256",
          "name": "completed",
          "type": "uint256"
        }
      ],
      "name": "setCompleted",
      "outputs": [],
      "stateMutability": "nonpayable",
      "type": "function"
    }
  ],
  "bytecode": "0x60806040525f80546001600160a01b03191633179055348015601f575f80fd5b506101438061002d5f395ff3fe608060405234801561000f575f80fd5b506004361061003f575f3560e01c8063445df0ac146100435780638da5cb5b1461005f578063fdacd57614610089575b5f80fd5b61004c60015481565b6040519081526020015b60405180910390f35b5f54610071906001600160a01b031681565b6040516001600160a01b039091168152602001610056565b61009c6100973660046100f6565b61009e565b005b5f546001600160a01b031633146100f15760405162461bcd60e51b81526020600482015260136024820152722932b9ba3934b1ba32b2103a379037bbb732b960691b604482015260640160405180910390fd5b600155565b5f60208284031215610106575f80fd5b503591905056fea26469706673582212200310e02c0739cb34a866b45d77326755978e93d8e50f9dc38a271f0e8c34818664736f6c63430008190033",
  "immutableReferences": {},
  "source": "// SPDX-License-Identifier: MIT\npragma solidity ^0.8.25;\n\ncontract Migrations {\n    address public owner = msg.sender;\n    uint public last_completed_migration;\n\n    modifier restricted() {\n        require(msg.sender == owner, \"Restricted to owner\");\n        _;\n    }\n\n    function setCompleted(uint completed) public restricted {\n        last_completed_migration = completed;\n    }\n}\n",
  "sourcePath": "/home/oronavisrur/DEXIOS/contracts/Migrations.sol",
  "compiler": {
    "name": "solc",
    "version": "0.8.25+commit.b61c2a91.Emscripten.clang"
  },
  "schemaVersion": "3.4.16",
  "updatedAt": "2026-01-30T15:52:29.485Z",
  "networkType": "ethereum",
  "devdoc": {
    "kind": "dev",
    "methods": {},
    "version": 1
  },
  "userdoc": {
    "kind": "user",
    "methods": {},
    "version": 1
  }
}