{
  "contractName": "SellerProfileNFT",
  "abi": [
    {
      "inputs": [],
      "stateMutability": "nonpayable",
      "type": "constructor"
    },
    {
      "inputs": [
        {
          "internalType": "address",
          "name": "sender",
          "type": "address"
        },
        {
          "internalType": "uint256",
          "name": "tokenId",
          "type": "uint256"
        },
        {
          "internalType": "address",
          "name": "owner",
          "type": "address"
        }
      ],
      "name": "ERC721IncorrectOwner",
      "type": "error"
    },
    {
      "inputs": [
        {
          "internalType": "address",
          "name": "operator",
          "type": "address"
        },
        {
          "internalType": "uint256",
          "name": "tokenId",
          "type": "uint256"
        }
      ],
      "name": "ERC721InsufficientApproval",
      "type": "error"
    },
    {
      "inputs": [
        {
          "internalType": "address",
          "name": "approver",
          "type": "address"
        }
      ],
      "name": "ERC721InvalidApprover",
      "type": "error"
    },
    {
      "inputs": [
        {
          "internalType": "address",
          "name": "operator",
          "type": "address"
        }
      ],
      "name": "ERC721InvalidOperator",
      "type": "error"
    },
    {
      "inputs": [
        {
          "internalType": "address",
          "name": "owner",
          "type": "address"
        }
      ],
      "name": "ERC721InvalidOwner",
      "type": "error"
    },
    {
      "inputs": [
        {
          "internalType": "address",
          "name": "receiver",
          "type": "address"
        }
      ],
      "name": "ERC721InvalidReceiver",
      "type": "error"
    },
    {
      "inputs": [
        {
          "internalType": "address",
          "name": "sender",
          "type": "address"
        }
      ],
      "name": "ERC721InvalidSender",
      "type": "error"
    },
    {
      "inputs": [
        {
          "internalType": "uint256",
          "name": "tokenId",
          "type": "uint256"
        }
      ],
      "name": "ERC721NonexistentToken",
      "type": "error"
    },
    {
      "inputs": [
        {
          "internalType": "address",
          "name": "owner",
          "type": "address"
        }
      ],
      "name": "OwnableInvalidOwner",
      "type": "error"
    },
    {
      "inputs": [
        {
          "internalType": "address",
          "name": "account",
          "type": "address"
        }
      ],
      "name": "OwnableUnauthorizedAccount",
      "type": "error"
    },
    {
      "anonymous": false,
      "inputs": [
        {
          "indexed": true,
          "internalType": "address",
          "name": "owner",
          "type": "address"
        },
        {
          "indexed": true,
          "internalType": "address",
          "name": "approved",
          "type": "address"
        },
        {
          "indexed": true,
          "internalType": "uint256",
          "name": "tokenId",
          "type": "uint256"
        }
      ],
      "name": "Approval",
      "type": "event"
    },
    {
      "anonymous": false,
      "inputs": [
        {
          "indexed": true,
          "internalType": "address",
          "name": "owner",
          "type": "address"
        },
        {
          "indexed": true,
          "internalType": "address",
          "name": "operator",
          "type": "address"
        },
        {
          "indexed": false,
          "internalType": "bool",
          "name": "approved",
          "type": "bool"
        }
      ],
      "name": "ApprovalForAll",
      "type": "event"
    },
    {
      "anonymous": false,
      "inputs": [
        {
          "indexed": true,
          "internalType": "address",
          "name": "previousOwner",
          "type": "address"
        },
        {
          "indexed": true,
          "internalType": "address",
          "name": "newOwner",
          "type": "address"
        }
      ],
      "name": "OwnershipTransferred",
      "type": "event"
    },
    {
      "anonymous": false,
      "inputs": [
        {
          "indexed": true,
          "internalType": "address",
          "name": "seller",
          "type": "address"
        },
        {
          "indexed": false,
          "internalType": "uint256",
          "name": "tokenId",
          "type": "uint256"
        }
      ],
      "name": "ProfileCreated",
      "type": "event"
    },
    {
      "anonymous": false,
      "inputs": [
        {
          "indexed": true,
          "internalType": "uint256",
          "name": "tokenId",
          "type": "uint256"
        },
        {
          "indexed": false,
          "internalType": "uint256",
          "name": "rating",
          "type": "uint256"
        },
        {
          "indexed": false,
          "internalType": "bool",
          "name": "jobCompleted",
          "type": "bool"
        }
      ],
      "name": "ReputationUpdated",
      "type": "event"
    },
    {
      "anonymous": false,
      "inputs": [
        {
          "indexed": true,
          "internalType": "address",
          "name": "from",
          "type": "address"
        },
        {
          "indexed": true,
          "internalType": "address",
          "name": "to",
          "type": "address"
        },
        {
          "indexed": true,
          "internalType": "uint256",
          "name": "tokenId",
          "type": "uint256"
        }
      ],
      "name": "Transfer",
      "type": "event"
    },
    {
      "inputs": [],
      "name": "PROFILE_MINT_COST",
      "outputs": [
        {
          "internalType": "uint256",
          "name": "",
          "type": "uint256"
        }
      ],
      "stateMutability": "view",
      "type": "function",
      "constant": true
    },
    {
      "inputs": [
        {
          "internalType": "address",
          "name": "to",
          "type": "address"
        },
        {
          "internalType": "uint256",
          "name": "tokenId",
          "type": "uint256"
        }
      ],
      "name": "approve",
      "outputs": [],
      "stateMutability": "nonpayable",
      "type": "function"
    },
    {
      "inputs": [
        {
          "internalType": "address",
          "name": "owner",
          "type": "address"
        }
      ],
      "name": "balanceOf",
      "outputs": [
        {
          "internalType": "uint256",
          "name": "",
          "type": "uint256"
        }
      ],
      "stateMutability": "view",
      "type": "function",
      "constant": true
    },
    {
      "inputs": [
        {
          "internalType": "uint256",
          "name": "tokenId",
          "type": "uint256"
        }
      ],
      "name": "getApproved",
      "outputs": [
        {
          "internalType": "address",
          "name": "",
          "type": "address"
        }
      ],
      "stateMutability": "view",
      "type": "function",
      "constant": true
    },
    {
      "inputs": [
        {
          "internalType": "address",
          "name": "owner",
          "type": "address"
        },
        {
          "internalType": "address",
          "name": "operator",
          "type": "address"
        }
      ],
      "name": "isApprovedForAll",
      "outputs": [
        {
          "internalType": "bool",
          "name": "",
          "type": "bool"
        }
      ],
      "stateMutability": "view",
      "type": "function",
      "constant": true
    },
    {
      "inputs": [],
      "name": "name",
      "outputs": [
        {
          "internalType": "string",
          "name": "",
          "type": "string"
        }
      ],
      "stateMutability": "view",
      "type": "function",
      "constant": true
    },
    {
      "inputs": [],
      "name": "owner",
      "outputs": [
        {
          "internalType": "address",
          "name": "",
          "type": "address"
        }
      ],
      "stateMutability": "view",
      "type": "function",
      "constant": true
    },
    {
      "inputs": [
        {
          "internalType": "uint256",
          "name": "tokenId",
          "type": "uint256"
        }
      ],
      "name": "ownerOf",
      "outputs": [
        {
          "internalType": "address",
          "name": "",
          "type": "address"
        }
      ],
      "stateMutability": "view",
      "type": "function",
      "constant": true
    },
    {
      "inputs": [
        {
          "internalType": "uint256",
          "name": "",
          "type": "uint256"
        }
      ],
      "name": "profiles",
      "outputs": [
        {
          "internalType": "address",
          "name": "owner",
          "type": "address"
        },
        {
          "internalType": "uint256",
          "name": "totalJobs",
          "type": "uint256"
        },
        {
          "internalType": "uint256",
          "name": "successfulJobs",
          "type": "uint256"
        },
        {
          "internalType": "uint256",
          "name": "totalEarned",
          "type": "uint256"
        },
        {
          "internalType": "uint256",
          "name": "totalRating",
          "type": "uint256"
        },
        {
          "internalType": "uint256",
          "name": "ratingCount",
          "type": "uint256"
        },
        {
          "internalType": "uint256",
          "name": "joinedAt",
          "type": "uint256"
        }
      ],
      "stateMutability": "view",
      "type": "function",
      "constant": true
    },
    {
      "inputs": [],
      "name": "renounceOwnership",
      "outputs": [],
      "stateMutability": "nonpayable",
      "type": "function"
    },
    {
      "inputs": [
        {
          "internalType": "address",
          "name": "from",
          "type": "address"
        },
        {
          "internalType": "address",
          "name": "to",
          "type": "address"
        },
        {
          "internalType": "uint256",
          "name": "tokenId",
          "type": "uint256"
        }
      ],
      "name": "safeTransferFrom",
      "outputs": [],
      "stateMutability": "nonpayable",
      "type": "function"
    },
    {
      "inputs": [
        {
          "internalType": "address",
          "name": "from",
          "type": "address"
        },
        {
          "internalType": "address",
          "name": "to",
          "type": "address"
        },
        {
          "internalType": "uint256",
          "name": "tokenId",
          "type": "uint256"
        },
        {
          "internalType": "bytes",
          "name": "data",
          "type": "bytes"
        }
      ],
      "name": "safeTransferFrom",
      "outputs": [],
      "stateMutability": "nonpayable",
      "type": "function"
    },
    {
      "inputs": [
        {
          "internalType": "address",
          "name": "",
          "type": "address"
        }
      ],
      "name": "sellerToTokenId",
      "outputs": [
        {
          "internalType": "uint256",
          "name": "",
          "type": "uint256"
        }
      ],
      "stateMutability": "view",
      "type": "function",
      "constant": true
    },
    {
      "inputs": [
        {
          "internalType": "address",
          "name": "operator",
          "type": "address"
        },
        {
          "internalType": "bool",
          "name": "approved",
          "type": "bool"
        }
      ],
      "name": "setApprovalForAll",
      "outputs": [],
      "stateMutability": "nonpayable",
      "type": "function"
    },
    {
      "inputs": [
        {
          "internalType": "bytes4",
          "name": "interfaceId",
          "type": "bytes4"
        }
      ],
      "name": "supportsInterface",
      "outputs": [
        {
          "internalType": "bool",
          "name": "",
          "type": "bool"
        }
      ],
      "stateMutability": "view",
      "type": "function",
      "constant": true
    },
    {
      "inputs": [],
      "name": "symbol",
      "outputs": [
        {
          "internalType": "string",
          "name": "",
          "type": "string"
        }
      ],
      "stateMutability": "view",
      "type": "function",
      "constant": true
    },
    {
      "inputs": [
        {
          "internalType": "uint256",
          "name": "tokenId",
          "type": "uint256"
        }
      ],
      "name": "tokenURI",
      "outputs": [
        {
          "internalType": "string",
          "name": "",
          "type": "string"
        }
      ],
      "stateMutability": "view",
      "type": "function",
      "constant": true
    },
    {
      "inputs": [
        {
          "internalType": "address",
          "name": "from",
          "type": "address"
        },
        {
          "internalType": "address",
          "name": "to",
          "type": "address"
        },
        {
          "internalType": "uint256",
          "name": "tokenId",
          "type": "uint256"
        }
      ],
      "name": "transferFrom",
      "outputs": [],
      "stateMutability": "nonpayable",
      "type": "function"
    },
    {
      "inputs": [
        {
          "internalType": "address",
          "name": "newOwner",
          "type": "address"
        }
      ],
      "name": "transferOwnership",
      "outputs": [],
      "stateMutability": "nonpayable",
      "type": "function"
    },
    {
      "inputs": [
        {
          "internalType": "address",
          "name": "seller",
          "type": "address"
        }
      ],
      "name": "mintProfile",
      "outputs": [
        {
          "internalType": "uint256",
          "name": "",
          "type": "uint256"
        }
      ],
      "stateMutability": "nonpayable",
      "type": "function"
    },
    {
      "inputs": [
        {
          "internalType": "uint256",
          "name": "tokenId",
          "type": "uint256"
        },
        {
          "internalType": "uint256",
          "name": "rating",
          "type": "uint256"
        },
        {
          "internalType": "bool",
          "name": "jobCompleted",
          "type": "bool"
        },
        {
          "internalType": "uint256",
          "name": "amountEarned",
          "type": "uint256"
        }
      ],
      "name": "updateReputation",
      "outputs": [],
      "stateMutability": "nonpayable",
      "type": "function"
    },
    {
      "inputs": [
        {
          "internalType": "uint256",
          "name": "tokenId",
          "type": "uint256"
        }
      ],
      "name": "getProfile",
      "outputs": [
        {
          "components": [
            {
              "internalType": "address",
              "name": "owner",
              "type": "address"
            },
            {
              "internalType": "uint256",
              "name": "totalJobs",
              "type": "uint256"
            },
            {
              "internalType": "uint256",
              "name": "successfulJobs",
              "type": "uint256"
            },
            {
              "internalType": "uint256",
              "name": "totalEarned",
              "type": "uint256"
            },
            {
              "internalType": "uint256",
              "name": "totalRating",
              "type": "uint256"
            },
            {
              "internalType": "uint256",
              "name": "ratingCount",
              "type": "uint256"
            },
            {
              "internalType": "uint256",
              "name": "joinedAt",
              "type": "uint256"
            }
          ],
          "internalType": "struct SellerProfileNFT.SellerProfile",
          "name": "",
          "type": "tuple"
        }
      ],
      "stateMutability": "view",
      "type": "function",
      "constant": true
    },
    {
      "inputs": [
        {
          "internalType": "uint256",
          "name": "tokenId",
          "type": "uint256"
        }
      ],
      "name": "getAverageRating",
      "outputs": [
        {
          "internalType": "uint256",
          "name": "",
          "type": "uint256"
        }
      ],
      "stateMutability": "view",
      "type": "function",
      "constant": true
    },
    {
      "inputs": [
        {
          "internalType": "address",
          "name": "seller",
          "type": "address"
        }
      ],
      "name": "hasProfile",
      "outputs": [
        {
          "internalType": "bool",
          "name": "",
          "type": "bool"
        }
      ],
      "stateMutability": "view",
      "type": "function",
      "constant": true
    }
  ],
  "bytecode": "0x608060405234801561000f575f80fd5b50336040518060400160405280601581526020017f446578696f732053656c6c65722050726f66696c6500000000000000000000008152506040518060400160405280600381526020016204453560ec1b815250815f908161007191906101a6565b50600161007e82826101a6565b5050506001600160a01b0381166100ae57604051631e4fbdf760e01b81525f600482015260240160405180910390fd5b6100b7816100bd565b50610265565b600680546001600160a01b038381166001600160a01b0319831681179093556040519116919082907f8be0079c531659141344cd1fd0a4f28419497f9722a3daafe3b4186f6b6457e0905f90a35050565b634e487b7160e01b5f52604160045260245ffd5b600181811c9082168061013657607f821691505b60208210810361015457634e487b7160e01b5f52602260045260245ffd5b50919050565b601f8211156101a157805f5260205f20601f840160051c8101602085101561017f5750805b601f840160051c820191505b8181101561019e575f815560010161018b565b50505b505050565b81516001600160401b038111156101bf576101bf61010e565b6101d3816101cd8454610122565b8461015a565b602080601f831160018114610206575f84156101ef5750858301515b5f19600386901b1c1916600185901b17855561025d565b5f85815260208120601f198616915b8281101561023457888601518255948401946001909101908401610215565b508582101561025157878501515f19600388901b60f8161c191681555b505060018460011b0185555b505050505050565b611699806102725f395ff3fe608060405234801561000f575f80fd5b5060043610610153575f3560e01c8063715018a6116100bf578063c36fe3d611610079578063c36fe3d6146102f7578063c87b56dd1461038a578063d93945d21461039d578063e985e9c5146103ac578063f08f4f64146103bf578063f2fde38b1461042c575f80fd5b8063715018a6146102865780638da5cb5b1461028e57806395d89b411461029f578063a22cb465146102a7578063a787c80b146102ba578063b88d4fde146102e4575f80fd5b806323b872dd1161011057806323b872dd146102145780632b39b0851461022757806342842e0e1461023a578063476b34d21461024d5780636352211e1461026057806370a0823114610273575f80fd5b806301ffc9a71461015757806306fdde031461017f578063081812fc14610194578063095ea7b3146101bf5780630e443ed3146101d457806317b7e03e14610201575b5f80fd5b61016a6101653660046112be565b61043f565b60405190151581526020015b60405180910390f35b610187610490565b6040516101769190611307565b6101a76101a2366004611319565b61051f565b6040516001600160a01b039091168152602001610176565b6101d26101cd366004611346565b610546565b005b6101f36101e236600461136e565b60096020525f908152604090205481565b604051908152602001610176565b6101f361020f366004611319565b610555565b6101d2610222366004611387565b6105e6565b6101f361023536600461136e565b610674565b6101d2610248366004611387565b6107d3565b6101d261025b3660046113cf565b6107f2565b6101a761026e366004611319565b610926565b6101f361028136600461136e565b610930565b6101d2610975565b6006546001600160a01b03166101a7565b610187610988565b6101d26102b5366004611409565b610997565b61016a6102c836600461136e565b6001600160a01b03165f90815260096020526040902054151590565b6101d26102f236600461144e565b6109a2565b61034b610305366004611319565b60086020525f908152604090208054600182015460028301546003840154600485015460058601546006909601546001600160a01b039095169593949293919290919087565b604080516001600160a01b0390981688526020880196909652948601939093526060850191909152608084015260a083015260c082015260e001610176565b610187610398366004611319565b6109b9565b6101f3678ac7230489e8000081565b61016a6103ba366004611523565b610a29565b6103d26103cd366004611319565b610a56565b604051610176919081516001600160a01b031681526020808301519082015260408083015190820152606080830151908201526080808301519082015260a0828101519082015260c0918201519181019190915260e00190565b6101d261043a36600461136e565b610b5f565b5f6001600160e01b031982166380ac58cd60e01b148061046f57506001600160e01b03198216635b5e139f60e01b145b8061048a57506301ffc9a760e01b6001600160e01b03198316145b92915050565b60605f805461049e9061154b565b80601f01602080910402602001604051908101604052809291908181526020018280546104ca9061154b565b80156105155780601f106104ec57610100808354040283529160200191610515565b820191905f5260205f20905b8154815290600101906020018083116104f857829003601f168201915b5050505050905090565b5f61052982610b9c565b505f828152600460205260409020546001600160a01b031661048a565b610551828233610bd4565b5050565b5f818152600860209081526040808320815160e08101835281546001600160a01b031681526001820154938101939093526002810154918301919091526003810154606083015260048101546080830152600581015460a0830181905260069091015460c083015282036105cb57505f92915050565b8060a0015181608001516105df9190611597565b9392505050565b6001600160a01b03821661061457604051633250574960e11b81525f60048201526024015b60405180910390fd5b5f610620838333610be1565b9050836001600160a01b0316816001600160a01b03161461066e576040516364283d7b60e01b81526001600160a01b038086166004830152602482018490528216604482015260640161060b565b50505050565b5f61067d610cd3565b6001600160a01b0382165f90815260096020526040902054156106db5760405162461bcd60e51b815260206004820152601660248201527550726f66696c6520616c72656164792065786973747360501b604482015260640161060b565b60078054905f6106ea836115b6565b90915550506007546106fc8382610d00565b6040805160e0810182526001600160a01b038581168083525f6020808501828152858701838152606087018481526080880185815260a089018681524260c08b019081528c8852600887528b88209a518b546001600160a01b0319169a16999099178a55935160018a01559151600289015551600388015551600487015551600586015592516006909401939093558083526009825291839020849055915183815290917fcb939889322fed25104a5d8945bde5162563412a1fd718946cdcacb03088ea08910160405180910390a290505b919050565b6107ed83838360405180602001604052805f8152506109a2565b505050565b6107fa610cd3565b5f848152600260205260409020546001600160a01b03166108565760405162461bcd60e51b8152602060048201526016602482015275141c9bd99a5b1948191bd95cc81b9bdd08195e1a5cdd60521b604482015260640161060b565b5f8481526008602052604081206001810180549192610874836115b6565b919050555082156108ae57600281018054905f610890836115b6565b919050555081816003015f8282546108a891906115ce565b90915550505b83156108e35783816004015f8282546108c791906115ce565b9091555050600581018054905f6108dd836115b6565b91905055505b60408051858152841515602082015286917fbf679dfc0d830b347bba472268a897a845ddda5e39264b61aa9ad0fca7ec0388910160405180910390a25050505050565b5f61048a82610b9c565b5f6001600160a01b03821661095a576040516322718ad960e21b81525f600482015260240161060b565b506001600160a01b03165f9081526003602052604090205490565b61097d610cd3565b6109865f610d61565b565b60606001805461049e9061154b565b610551338383610db2565b6109ad8484846105e6565b61066e84848484610e50565b60606109c482610b9c565b505f6109da60408051602081019091525f815290565b90505f8151116109f85760405180602001604052805f8152506105df565b80610a0284610f76565b604051602001610a139291906115f8565b6040516020818303038152906040529392505050565b6001600160a01b039182165f90815260056020908152604080832093909416825291909152205460ff1690565b610a986040518060e001604052805f6001600160a01b031681526020015f81526020015f81526020015f81526020015f81526020015f81526020015f81525090565b5f828152600260205260409020546001600160a01b0316610af45760405162461bcd60e51b8152602060048201526016602482015275141c9bd99a5b1948191bd95cc81b9bdd08195e1a5cdd60521b604482015260640161060b565b505f90815260086020908152604091829020825160e08101845281546001600160a01b031681526001820154928101929092526002810154928201929092526003820154606082015260048201546080820152600582015460a082015260069091015460c082015290565b610b67610cd3565b6001600160a01b038116610b9057604051631e4fbdf760e01b81525f600482015260240161060b565b610b9981610d61565b50565b5f818152600260205260408120546001600160a01b03168061048a57604051637e27328960e01b81526004810184905260240161060b565b6107ed8383836001611006565b5f828152600260205260408120546001600160a01b0390811690831615610c0d57610c0d81848661110a565b6001600160a01b03811615610c4757610c285f855f80611006565b6001600160a01b0381165f90815260036020526040902080545f190190555b6001600160a01b03851615610c75576001600160a01b0385165f908152600360205260409020805460010190555b5f8481526002602052604080822080546001600160a01b0319166001600160a01b0389811691821790925591518793918516917fddf252ad1be2c89b69c2b068fc378daa952ba7f163c4a11628f55a4df523b3ef91a4949350505050565b6006546001600160a01b031633146109865760405163118cdaa760e01b815233600482015260240161060b565b6001600160a01b038216610d2957604051633250574960e11b81525f600482015260240161060b565b5f610d3583835f610be1565b90506001600160a01b038116156107ed576040516339e3563760e11b81525f600482015260240161060b565b600680546001600160a01b038381166001600160a01b0319831681179093556040519116919082907f8be0079c531659141344cd1fd0a4f28419497f9722a3daafe3b4186f6b6457e0905f90a35050565b6001600160a01b038216610de457604051630b61174360e31b81526001600160a01b038316600482015260240161060b565b6001600160a01b038381165f81815260056020908152604080832094871680845294825291829020805460ff191686151590811790915591519182527f17307eab39ab6107e8899845ad3d59bd9653f200f220920489ca2b5937696c31910160405180910390a3505050565b6001600160a01b0383163b1561066e57604051630a85bd0160e11b81526001600160a01b0384169063150b7a0290610e9290339088908790879060040161160c565b6020604051808303815f875af1925050508015610ecc575060408051601f3d908101601f19168201909252610ec991810190611648565b60015b610f33573d808015610ef9576040519150601f19603f3d011682016040523d82523d5f602084013e610efe565b606091505b5080515f03610f2b57604051633250574960e11b81526001600160a01b038516600482015260240161060b565b805181602001fd5b6001600160e01b03198116630a85bd0160e11b14610f6f57604051633250574960e11b81526001600160a01b038516600482015260240161060b565b5050505050565b60605f610f828361116e565b60010190505f8167ffffffffffffffff811115610fa157610fa161143a565b6040519080825280601f01601f191660200182016040528015610fcb576020820181803683370190505b5090508181016020015b5f19016f181899199a1a9b1b9c1cb0b131b232b360811b600a86061a8153600a8504945084610fd557509392505050565b808061101a57506001600160a01b03821615155b156110db575f61102984610b9c565b90506001600160a01b038316158015906110555750826001600160a01b0316816001600160a01b031614155b801561106857506110668184610a29565b155b156110915760405163a9fbf51f60e01b81526001600160a01b038416600482015260240161060b565b81156110d95783856001600160a01b0316826001600160a01b03167f8c5be1e5ebec7d5bd14f71427d1e84f3dd0314c0f7b2291e5b200ac8c7c3b92560405160405180910390a45b505b50505f90815260046020526040902080546001600160a01b0319166001600160a01b0392909216919091179055565b611115838383611245565b6107ed576001600160a01b03831661114357604051637e27328960e01b81526004810182905260240161060b565b60405163177e802f60e01b81526001600160a01b03831660048201526024810182905260440161060b565b5f8072184f03e93ff9f4daa797ed6e38ed64bf6a1f0160401b83106111ac5772184f03e93ff9f4daa797ed6e38ed64bf6a1f0160401b830492506040015b6d04ee2d6d415b85acef810000000083106111d8576d04ee2d6d415b85acef8100000000830492506020015b662386f26fc1000083106111f657662386f26fc10000830492506010015b6305f5e100831061120e576305f5e100830492506008015b612710831061122257612710830492506004015b60648310611234576064830492506002015b600a831061048a5760010192915050565b5f6001600160a01b038316158015906112a15750826001600160a01b0316846001600160a01b0316148061127e575061127e8484610a29565b806112a157505f828152600460205260409020546001600160a01b038481169116145b949350505050565b6001600160e01b031981168114610b99575f80fd5b5f602082840312156112ce575f80fd5b81356105df816112a9565b5f81518084528060208401602086015e5f602082860101526020601f19601f83011685010191505092915050565b602081525f6105df60208301846112d9565b5f60208284031215611329575f80fd5b5035919050565b80356001600160a01b03811681146107ce575f80fd5b5f8060408385031215611357575f80fd5b61136083611330565b946020939093013593505050565b5f6020828403121561137e575f80fd5b6105df82611330565b5f805f60608486031215611399575f80fd5b6113a284611330565b92506113b060208501611330565b9150604084013590509250925092565b803580151581146107ce575f80fd5b5f805f80608085870312156113e2575f80fd5b84359350602085013592506113f9604086016113c0565b9396929550929360600135925050565b5f806040838503121561141a575f80fd5b61142383611330565b9150611431602084016113c0565b90509250929050565b634e487b7160e01b5f52604160045260245ffd5b5f805f8060808587031215611461575f80fd5b61146a85611330565b935061147860208601611330565b925060408501359150606085013567ffffffffffffffff8082111561149b575f80fd5b818701915087601f8301126114ae575f80fd5b8135818111156114c0576114c061143a565b604051601f8201601f19908116603f011681019083821181831017156114e8576114e861143a565b816040528281528a6020848701011115611500575f80fd5b826020860160208301375f60208483010152809550505050505092959194509250565b5f8060408385031215611534575f80fd5b61153d83611330565b915061143160208401611330565b600181811c9082168061155f57607f821691505b60208210810361157d57634e487b7160e01b5f52602260045260245ffd5b50919050565b634e487b7160e01b5f52601160045260245ffd5b5f826115b157634e487b7160e01b5f52601260045260245ffd5b500490565b5f600182016115c7576115c7611583565b5060010190565b8082018082111561048a5761048a611583565b5f81518060208401855e5f93019283525090919050565b5f6112a161160683866115e1565b846115e1565b6001600160a01b03858116825284166020820152604081018390526080606082018190525f9061163e908301846112d9565b9695505050505050565b5f60208284031215611658575f80fd5b81516105df816112a956fea26469706673582212200252c0a5547f448d8026a3865bfa7217e7dde6381d0992666b7312ad1faf95e464736f6c63430008190033",
  "immutableReferences": {},
  "source": "// SPDX-License-Identifier: MIT\npragma solidity ^0.8.25;\n\nimport \"@openzeppelin/contracts/token/ERC721/ERC721.sol\";\nimport \"@openzeppelin/contracts/access/Ownable.sol\";\n\ncontract SellerProfileNFT is ERC721, Ownable {\n    uint256 private _tokenIdCounter;\n    uint256 public constant PROFILE_MINT_COST = 10 * 10**18;\n\n    struct SellerProfile {\n        address owner;\n        uint256 totalJobs;\n        uint256 successfulJobs;\n        uint256 totalEarned;\n        uint256 totalRating;\n        uint256 ratingCount;\n        uint256 joinedAt;\n    }\n\n    mapping(uint256 => SellerProfile) public profiles;\n    mapping(address => uint256) public sellerToTokenId;\n\n    event ProfileCreated(address indexed seller, uint256 tokenId);\n    event ReputationUpdated(uint256 indexed tokenId, uint256 rating, bool jobCompleted);\n\n    constructor() ERC721(\"Dexios Seller Profile\", \"DSP\") Ownable(msg.sender) {}\n\n    function mintProfile(address seller) external onlyOwner returns (uint256) {\n        require(sellerToTokenId[seller] == 0, \"Profile already exists\");\n        \n        _tokenIdCounter++;\n        uint256 newTokenId = _tokenIdCounter;\n        \n        _mint(seller, newTokenId);\n        \n        profiles[newTokenId] = SellerProfile({\n            owner: seller,\n            totalJobs: 0,\n            successfulJobs: 0,\n            totalEarned: 0,\n            totalRating: 0,\n            ratingCount: 0,\n            joinedAt: block.timestamp\n        });\n        \n        sellerToTokenId[seller] = newTokenId;\n        \n        emit ProfileCreated(seller, newTokenId);\n        return newTokenId;\n    }\n\n    function updateReputation(\n        uint256 tokenId,\n        uint256 rating,\n        bool jobCompleted,\n        uint256 amountEarned\n    ) external onlyOwner {\n        require(_ownerOf(tokenId) != address(0), \"Profile does not exist\");\n        \n        SellerProfile storage profile = profiles[tokenId];\n        profile.totalJobs++;\n        \n        if (jobCompleted) {\n            profile.successfulJobs++;\n            profile.totalEarned += amountEarned;\n        }\n        \n        if (rating > 0) {\n            profile.totalRating += rating;\n            profile.ratingCount++;\n        }\n        \n        emit ReputationUpdated(tokenId, rating, jobCompleted);\n    }\n\n    function getProfile(uint256 tokenId) external view returns (SellerProfile memory) {\n        require(_ownerOf(tokenId) != address(0), \"Profile does not exist\");\n        return profiles[tokenId];\n    }\n\n    function getAverageRating(uint256 tokenId) external view returns (uint256) {\n        SellerProfile memory profile = profiles[tokenId];\n        if (profile.ratingCount == 0) return 0;\n        return profile.totalRating / profile.ratingCount;\n    }\n\n    function hasProfile(address seller) external view returns (bool) {\n        return sellerToTokenId[seller] != 0;\n    }\n}",
  "sourcePath": "/home/oronavisrur/DEXIOS/contracts/SellerProfileNFT.sol",
  "compiler": {
    "name": "solc",
    "version": "0.8.25+commit.b61c2a91.Emscripten.clang"
  },
  "schemaVersion": "3.4.16",
  "updatedAt": "2026-02-03T18:26:44.978Z",
  "networkType": "ethereum",
  "devdoc": {
    "errors": {
      "ERC721IncorrectOwner(address,uint256,address)": [
        {
          "details": "Indicates an error related to the ownership over a particular token. Used in transfers.",
          "params": {
            "owner": "Address of the current owner of a token.",
            "sender": "Address whose tokens are being transferred.",
            "tokenId": "Identifier number of a token."
          }
        }
      ],
      "ERC721InsufficientApproval(address,uint256)": [
        {
          "details": "Indicates a failure with the `operator`s approval. Used in transfers.",
          "params": {
            "operator": "Address that may be allowed to operate on tokens without being their owner.",
            "tokenId": "Identifier number of a token."
          }
        }
      ],
      "ERC721InvalidApprover(address)": [
        {
          "details": "Indicates a failure with the `approver` of a token to be approved. Used in approvals.",
          "params": {
            "approver": "Address initiating an approval operation."
          }
        }
      ],
      "ERC721InvalidOperator(address)": [
        {
          "details": "Indicates a failure with the `operator` to be approved. Used in approvals.",
          "params": {
            "operator": "Address that may be allowed to operate on tokens without being their owner."
          }
        }
      ],
      "ERC721InvalidOwner(address)": [
        {
          "details": "Indicates that an address can't be an owner. For example, `address(0)` is a forbidden owner in EIP-20. Used in balance queries.",
          "params": {
            "owner": "Address of the current owner of a token."
          }
        }
      ],
      "ERC721InvalidReceiver(address)": [
        {
          "details": "Indicates a failure with the token `receiver`. Used in transfers.",
          "params": {
            "receiver": "Address to which tokens are being transferred."
          }
        }
      ],
      "ERC721InvalidSender(address)": [
        {
          "details": "Indicates a failure with the token `sender`. Used in transfers.",
          "params": {
            "sender": "Address whose tokens are being transferred."
          }
        }
      ],
      "ERC721NonexistentToken(uint256)": [
        {
          "details": "Indicates a `tokenId` whose `owner` is the zero address.",
          "params": {
            "tokenId": "Identifier number of a token."
          }
        }
      ],
      "OwnableInvalidOwner(address)": [
        {
          "details": "The owner is not a valid owner account. (eg. `address(0)`)"
        }
      ],
      "OwnableUnauthorizedAccount(address)": [
        {
          "details": "The caller account is not authorized to perform an operation."
        }
      ]
    },
    "events": {
      "Approval(address,address,uint256)": {
        "details": "Emitted when `owner` enables `approved` to manage the `tokenId` token."
      },
      "ApprovalForAll(address,address,bool)": {
        "details": "Emitted when `owner` enables or disables (`approved`) `operator` to manage all of its assets."
      },
      "Transfer(address,address,uint256)": {
        "details": "Emitted when `tokenId` token is transferred from `from` to `to`."
      }
    },
    "kind": "dev",
    "methods": {
      "approve(address,uint256)": {
        "details": "See {IERC721-approve}."
      },
      "balanceOf(address)": {
        "details": "See {IERC721-balanceOf}."
      },
      "getApproved(uint256)": {
        "details": "See {IERC721-getApproved}."
      },
      "isApprovedForAll(address,address)": {
        "details": "See {IERC721-isApprovedForAll}."
      },
      "name()": {
        "details": "See {IERC721Metadata-name}."
      },
      "owner()": {
        "details": "Returns the address of the current owner."
      },
      "ownerOf(uint256)": {
        "details": "See {IERC721-ownerOf}."
      },
      "renounceOwnership()": {
        "details": "Leaves the contract without owner. It will not be possible to call `onlyOwner` functions. Can only be called by the current owner. NOTE: Renouncing ownership will leave the contract without an owner, thereby disabling any functionality that is only available to the owner."
      },
      "safeTransferFrom(address,address,uint256)": {
        "details": "See {IERC721-safeTransferFrom}."
      },
      "safeTransferFrom(address,address,uint256,bytes)": {
        "details": "See {IERC721-safeTransferFrom}."
      },
      "setApprovalForAll(address,bool)": {
        "details": "See {IERC721-setApprovalForAll}."
      },
      "supportsInterface(bytes4)": {
        "details": "See {IERC165-supportsInterface}."
      },
      "symbol()": {
        "details": "See {IERC721Metadata-symbol}."
      },
      "tokenURI(uint256)": {
        "details": "See {IERC721Metadata-tokenURI}."
      },
      "transferFrom(address,address,uint256)": {
        "details": "See {IERC721-transferFrom}."
      },
      "transferOwnership(address)": {
        "details": "Transfers ownership of the contract to a new account (`newOwner`). Can only be called by the current owner."
      }
    },
    "version": 1
  },
  "userdoc": {
    "kind": "user",
    "methods": {},
    "version": 1
  }
}